:020000041400E6
:10000000F0790020D900001400F002F800F08AF81E
:100010000AA090E8000C82448344AAF10107DA4563
:1000200001D100F07FF8AFF2090EBAE80F0013F02B
:10003000010F18BFFB1A43F001031847F40000003A
:10004000240100000A444FF0000C10F8013B13F0AB
:10005000070408BF10F8014B1D1108BF10F8015B21
:10006000641E05D010F8016B641E01F8016BF9D114
:1000700013F0080F1EBF10F8014BAD1C0C1B09D16B
:100080006D1E58BF01F801CBFAD505E014F8016BDD
:1000900001F8016B6D1EF9D59142D6D3704700006F
:1000A000103A24BF78C878C1FAD8520724BF30C8A4
:1000B00030C144BF04680C60704700000023002476
:1000C00000250026103A28BF78C1FBD8520728BF68
:1000D00030C148BF0B607047DFF82C00016841F465
:1000E0007001016009480047FEE7FEE7FEE7FEE712
:1000F000FEE7FEE7FEE7FEE7FEE7FEE70448054908
:10010000054A064B7047000088ED00E00900001426
:10011000F00B0020F0790020F0730020F073002035
:100120007046704740F2D91CC1F2000C60470000D5
:10013000600100140000001064680100A0000014B9
:10014000C469011400000020A8010000440000144C
:10015000106A0114A801002048780000BC000014B7
:10016000F0790020D9000014E9000014EB0000141D
:10017000ED000014EF000014F10000145A5A5A5A0E
:10018000000000000000000000000000F300001468
:10019000F500001400000000F7000014F90000143E
:1001A000FB00001491A60010FB000014FB000014DB
:1001B000FB000014FB000014FB000014FB00001403
:1001C000A1B20010FB000014FB000014FB0000149F
:1001D000FB000014FB000014FB000014FB000014E3
:1001E000FB000014FB000014F3530010FB0000148C
:1001F000FB000014FB000014FB000014D959001090
:100200003B5E0010FB000014FB000014FB00001418
:10021000FB000014FB000014FB000014FB000014A2
:10022000FB000014FB000014FB000014FB00001492
:10023000FB000014FB000014FB000014FB00001482
:10024000FB000014FB000014FB000014FB00001472
:1002500000000000FB000014FB000014FB00001471
:1002600000000000FB000014FB000014FB00001461
:10027000FB0000146E2908F0E085702908F028873B
:10028000662911F06885652911F06585672911F0E7
:1002900062856129AFF3008003681B0A28BF41F023
:1002A0008001692908F01882642908F015827529EF
:1002B00008F012826F2908F0B386782908F0F486D6
:1002C000E92908F04B86E42908F04886F52908F06A
:1002D0004586EF2908F0B086F82908F0F386036810
:1002E000DB0928BF41F08001632909F0B38173293C
:1002F00009F0B881E32909F0C381F32909F0C88125
:10030000002070471FB511F0F6FC9DE8030008F0CF
:1003100095FC09F025FA04000020002111F04EF9A7
:10032000401C60600020002111F032F9E06008F00C
:1003300041FC1FBD10B510BD09F0E4F91146FFF7EF
:10034000E1FF00F01BF809F0BFFA03B4FFF7F2FF7A
:1003500003BC08F0E9FE000030B58DB004460D4640
:100360002B46224617A101A808F0A0F901AA4FF4D4
:100370007F01E0B210F06CFF0DB030BD10B541F25E
:100380003062164916480DF04BFE1648006800F022
:100390002AF905F069FA1348006800F06CFD0021A5
:1003A000114800F094FD01F03EF900210F4800F0E3
:1003B0008EFD01210E4800F08AFD00F0D0FE0020E5
:1003C00010BD0000726563656976656420736967B6
:1003D0006E616C3A2025642025640A00FA1B011026
:1003E00000800020F00000202400002050000020A9
:1003F000380000200146FF4A086810604FF00000F6
:10040000704730B58BB04FF00000FB490860FB49E6
:100410000968096808464FF0000103F037FC4FF007
:10042000010004461BE02246F5A102A808F03EF9AF
:10043000002301AA0AA902A80DF0A2FC0546002D7E
:1004400002DA28460BB030BDEC4909680968084655
:10045000E2B2019904F0DDF904F101000446072C31
:10046000E1DDEA48006804F09EFA0020EAE710B5F2
:10047000A0B017A80DF060FF4FF00100044618E08F
:100480002246DFA10FA808F011F92246E0A107A833
:1004900008F00CF9002017A924228123CDE90021BE
:1004A000029007AA01210FA80DF0D6FB04F101006C
:1004B0000446072CE4DD00204FF47A710223D9A210
:1004C000CDE900100146E7A00DF0C6FB00204FF477
:1004D0007A710223E64ACDE900100146E5A00DF04D
:1004E000BBFB002014210423E14A5832CDE900105F
:1004F0000146E7A00DF0B0FB002001460290E8485D
:100500001423DB4AC432CDE900100021E5A00DF030
:10051000A3FB002001460290E6481423E64ACDE9F9
:1005200000100021E5A00DF097FB0020014602908D
:10053000E0481423E04A8032CDE900100021E2A017
:100540000DF08AFB0020D64902901423E34ACDE93E
:1005500000010146E2A00DF07FFB0020E54902907A
:100560001423DE4A9832CDE900010146E2A00DF0E5
:1005700073FB0020E44902901423E44ACDE9000112
:100580000146E3A00DF068FB002001210B46DF4A85
:10059000A032CDE900100146E3A00DF05DFB002282
:1005A00005A9B0A00DF0ECFB002204A9B1A00DF04C
:1005B000E7FB002203A9B6A00DF0E2FB002206A98A
:1005C000D9A00DF0DDFB9DF818000090BDF81020BB
:1005D000BDF814108948039B006803F01FFAFFF769
:1005E00010FF20B010BD70B506464FF004000FF0AC
:1005F00093FD044604F060F90446844804604FF01B
:10060000F0000FF089FD054680480168284601F09A
:10061000DFFF054679480560C74930460EF063FDA7
:100620000022C6A1C84800680EF04BFFC7490880E9
:100630000846B0F90000002802DA4FF0FF3070BD24
:10064000FFF715FF0020FAE73EB50446012C0FD155
:10065000002202A9A2A00DF093FB002201A9A6A0EE
:100660000DF08EFB00226946A9A00DF089FB0EE07B
:10067000002202A98BA00DF083FB002201A98FA00C
:100680000DF07EFB002269468FA00DF079FB5B49DF
:10069000096809680846DDE90032029903F036FB73
:1006A0003EBD2DE9F04F95B005460C4617469846DD
:1006B000DDE91E9A02A80DF03FFE2078012802DB3A
:1006C0002078072804DD4FF0FF3015B0BDE8F08F2B
:1006D0002968C9B20846FFF7B7FF4748006828B93C
:1006E0009BA00DF0F1F96FF00100EEE713A8398837
:1006F000B8F80020B9F80030BAF800C00180428094
:100700008380A0F806C000BF834602A8009020782E
:1007100001465B46384A3948006803F095F90646B9
:10072000002E04DA91A00DF0CFF93046CDE728680D
:1007300002902078024632A10BA807F0B7FF0020F4
:1007400002AB2422812100900BA80DF039FB002080
:100750000CF090FD8FA00DF0B7F93046B5E7F0B57D
:100760008BB007460C4615461E464FF0000105EBC0
:10077000850020F00040CDE908410A9107904FF034
:1007800082004FF0C8014FF042024FF4A073CDE950
:100790000332CDE905104FF04101814BCDE90162F3
:1007A00000914FF064024FF0000138460EF0B4FFA4
:1007B00000200BB0F0BD2DE9F04F97B005460C4678
:1007C00017469846DDF8809014A84FF00001C180CC
:1007D00081804180018000BF03A80DF0ADFD20782D
:1007E000012802DB2078072803DD4FF0FF3017B027
:1007F000D8E0D9E0000000200C0100200C0000200F
:100800007369676E61747572652564000800002065
:10081000436F6C6F72207369676E617475726520C7
:10082000256400005365747320746865206D6178D9
:10083000696D756D20746F74616C20626C6F636B91
:10084000732073656E7420706572206672616D65C9
:100850002E202864656661756C7420313030302933
:10086000000000004D617820626C6F636B730000C4
:10087000F43201104D617820626C6F636B732070ED
:100880006572207369676E6174757265000000009F
:100890004D696E20626C6F636B2061726561000050
:1008A00000002E404D696E20736174757261746929
:1008B0006F6E00000000F83F483401104875652055
:1008C000737072656164000053617475726174695C
:1008D0006F6E207370726561640000005035011006
:1008E0004343206D696E2073617475726174696F22
:1008F0006E000000000008404343206875652073C7
:10090000707265616400000000004940703601109B
:1009100043432073617475726174696F6E207370E4
:100920007265616400000000436F6C6F7220636F3A
:100930006465206D6F6465002C3201106765745228
:100940004C534672616D6500F400002004000020E5
:100950004E6F20726177206672616D6520696E202E
:100960006D656D6F7279210A00000000436F6C6F36
:10097000722073617475726174696F6E2069736E31
:100980002774206869676820656E6F756768210A3B
:100990000000000053756363657373210A00000053
:1009A00043434231BDE8F08F2968C9B20846FFF7DA
:1009B0004BFEFF48006840B9AFF26C000DF084F8C0
:1009C0006FF0010017B0BDE8F08F16A83988B8F8AD
:1009D00000200180428000BF824614A803A9CDE90F
:1009E0000010207801465346F14AF248006803F0AF
:1009F00051F80646002E05DAAFF290000DF064F8CB
:100A00003046DFE7B9F1000F22D068462178BDF803
:100A10005020BDF854E002EB0E0B1FFA8BF3BDF82B
:100A200052C0BDF856E00CEB0E0B1FFA8BFA01809A
:100A300042808380A0F806C0A0F808A000BF4FF055
:100A400003034FF0010269464846FFF788FE00BFE6
:100A50002868039020780246AFF25C210CA807F0CA
:100A600025FE002003AB2422812100900CA80DF06C
:100A7000A7F900200CF0FEFBAFF2E8000DF024F81F
:100A800030469FE730B593B0044602A80DF054FC01
:100A90002078012802DB2078072803DD4FF0FF30A3
:100AA00013B030BD242102A808F018F820780246BF
:100AB000AFF2B4210BA807F0F9FD002002AB24220D
:100AC000812100900BA80DF07BF90546FFF799FCFA
:100AD0002846E5E730B593B002A80DF02DFC24219F
:100AE00002A807F0FBFF4FF00100044617E0224682
:100AF000AFF2F4210BA807F0D9FD002002AB2422AD
:100B0000812100900BA80DF05BF90546002D02DA5B
:100B1000284613B030BD04F10100C0B20446072CD2
:100B2000E5DDFFF76EFC0020F3E7F0B589B0044681
:100B30000D4616464FF0FF3007904FF00100089029
:100B400008A80CF067F9071E02DA384609B0F0BDB4
:100B5000A6B1002007AACDE9030205900690042063
:100B60000346CDE9010500949348B0F90020002127
:100B7000924800680EF0E8FB0798E7E7002004229F
:100B8000CDE902501346CDE9004204908A48B0F9FD
:100B900000200121894800680EF0D6FB0020D5E72F
:100BA0002DE9F0418AB007460E468148006808B139
:100BB000FFF727FC8248006803F0F5FE0020B4220E
:100BC000CDE904020690079002200021CDE9001033
:100BD00064230203CDE902107A4938460FF071F818
:100BE0000446794A1146774A224410464FF00102E2
:100BF000FFF79BFF8046C4F500504FEA9000024685
:100C00007048204401466E48006803F089FE05469E
:100C10004FF000004FF0B4014FF0C802CDE90715C6
:100C2000069209904FF002004FF4A071CDE90260E6
:100C3000CDE904104FF0410064494FF064034FF4D4
:100C40000052CDE900105F4938460FF03AF804EB46
:100C5000850002465B4938460FF047F840460AB027
:100C6000BDE8F08110B504464FF001012046FFF7C2
:100C700097FF10BD30B504460B46206805464FF07F
:100C80000000014604E0505C685401F10100014697
:100C900018688842F7D8186830BD2DE9F0438FB046
:100CA00007460C4615461E46DDE916894FF0000141
:100CB00008EB48004FEA80004FEA5000CDE90B6195
:100CC0000D910A904FF0820105EB850020F0004065
:100CD000CDE906104FF0C800CDE908414FF04201C0
:100CE0004FF4A072CDE90212CDE904104FF041009B
:100CF000374B4FF064024FF00001CDE90009384650
:100D00000EF00AFD00200FB0BDE8F0832DE9F041A0
:100D100005464FEA052044F62061B0FBF1F0044699
:100D200014B90120BDE8F081204610F076FF80461E
:100D3000404610F0C7F90746264910F08DFF0646D9
:100D400010F05DFF0446FF2C03D94FF0FF0004466E
:100D500003E014B94FF001000446E0B2E2E72DE9E8
:100D6000FE4F00211348006802F0E1FD0446002C0C
:100D70006DD02088072804DC2088174951F82050BE
:100D800001E015480568A0886188A0EB0100218971
:100D9000E288A1EB020100FB01FA5046FFF7B6FF23
:100DA000064605F0FF09B9F1000F1ED016E000005D
:100DB0000C0100200C00002004000020F4000020A2
:100DC00008000020000008100020081043435131A3
:100DD0004343423200004842D432011009FB06F07E
:100DE0004FEA102000F1010001E04FF000008146C1
:100DF0004FEA1520054605F0FF08B8F1000F06D0B0
:100E000008FB06F04FEA102000F1010001E04FF06E
:100E1000000080464FEA15200546EFB237B107FBC8
:100E200006F04FEA102000F1010001E04FF0000051
:100E30000746F8B2029008F0FF00019009F0FF00A9
:100E400000906A4601A902A80BF098FE06E04FF058
:100E50000000029002A80CF053FE00BFBDE8FE8F18
:100E60001CB5002000900123FD4A01460190FDA021
:100E70000CF0F2FE1CBD70B505464FF00C000FF0F3
:100E80004BF9044600F06AFE0446FA480460FA4949
:100E900028460EF028F90022F8A1F94800680EF063
:100EA00010FBF84908800022F7A1F54800680EF011
:100EB00008FBF74908800022F6A1F14800680EF00F
:100EC00000FBF6490880FFF7CBFF002070BD02460B
:100ED0000B4613B1F248C26112E04FF0000107E087
:100EE000082902DB4FF0FF30704701F10100014695
:100EF000EB4850F821000028F2D1E94840F82120C1
:100F00000020F1E7E748007810B1E6480078704724
:100F1000E548007808B10220F9E70020F7E74FF034
:100F20000000E249087070474FF00100DF49087087
:100F3000DC4908704FF00000704738B5044620784F
:100F400058B12078082805DC2078401ED44951F893
:100F5000200010B94FF0FF3038BD4FF00000D449E9
:100F600008602078E8B900226946BEA00CF008FFAE
:100F70009DF8000018B19DF80000082803DD4FF02F
:100F80000000CC4908709DF80000401EC44951F88B
:100F9000200028B19DF80000A0F10100C5490870AB
:100FA00004E02078A0F10100C2490870FFF7BCFFFF
:100FB000D2E770B506460C463046FFF7BEFF054641
:100FC000002D01DA284670BDB9492068086000206C
:100FD000F9E710B54FF00000044610E0B04850F8B3
:100FE000240040680346AE4850F8240000680246DA
:100FF000611CB1A00CF068FD04F101000446A84892
:1010000050F824000028E9D110BD10B586B0044680
:101010009349A1F1080103C9CDE90401BDF8140009
:101020000346BDF812000246BDF810000146A5A017
:101030000CF04AFD54B1002004AACDE9002006239B
:1010400082220146029020460EF066FB002006B088
:1010500010BD7FB504460D464FF0120006462088AD
:10106000B04203DB4FF0FF3004B070BDA5B10021EA
:1010700020889C4B03EBC0004068A123CDE901010F
:10108000009303912088974951F830000346A1222C
:10109000002128460EF040FB0020E5E710B586B0A1
:1010A00004464FF0000005AACDE9010203904FF07D
:1010B0000103009404907348B0F900204FF0000140
:1010C0006F4800680EF040F9059806B010BD1FB5D6
:1010D000002003AACDE90020034602906F48B0F932
:1010E00000200021664800680EF02EF9039804B035
:1010F00010BD10B5FFF7BBF904F074FB0CF05EF9FE
:101100000CF084F900F08FFAFFF7AAFE10BD10B5BD
:101110000CF05AFF5748006800F0D8FD624908708B
:101120000DF0D6F808B1FFF7E4FF10BD38B54FF069
:101130000000044603E004F10100C0B20446584830
:1011400050F824000028F6D121464A48006800F0F3
:10115000C8FEC0B200906846FFF7EFFE38BD08B584
:101160004FF0000005460646FFF7E0FFC6E05E4888
:1011700000680EF021FD0446FFF7C9FF052D6ED271
:10118000DFE805F0031B424955004FF000000090D6
:1011900068460CF0B5FC4249464A127851F82210D4
:1011A000896808468047002803DA4FF003000546A7
:1011B00002E04FF0010005469EE03B48007828B170
:1011C000FFF785FF4FF0020005461CE03748007826
:1011D00048B13349374A127851F82210C968084695
:1011E0008047002803DA4FF0030005460BE056B1B4
:1011F0004CB94FF0000000906846FFF79EFE4FF09C
:101200000000054600BF77E02748007810B94FF08E
:101210000000054670E04FF00000244908702149A5
:101220000870FFF754FF4FF00400054664E01F48C4
:10123000007828B1FFF778FE4FF0000005460DE07A
:1012400014B12A48007848B94FF000000090684671
:10125000FFF773FE4FF00000054600BF4CE047E08B
:10126000DC38011044656661756C742070726F67BC
:1012700072616D00200000206C37011072756E00E5
:10128000F40000201800002072756E6E696E670011
:101290001A00002073746F70000000001C00002012
:1012A000A8010020100000201300002011000020E1
:1012B000140000201200002025643A2025732C2001
:1012C00025730A0050697879206669726D776172BA
:1012D000652076657273696F6E2025642E25642EF5
:1012E00025640A0044380110F0000020CF000020DF
:1012F0004FF00300054600BF00BF264637E7000059
:101300001CB54FF00100019001A80BF083FD584877
:10131000006808B1FFF775F85648006803F043FB12
:101320000020FFF7BBFE00BF04F0B4FA04460068DB
:101330008068034601226946204698470028F3D179
:101340001CBD7FB504F0A6FA04464FF00000054628
:1013500052E04948007810B1012843D119E02068D3
:1013600080680346012203A920469847012800DA35
:101370007FBD9DF80C00FF2806D14048007818B9C1
:101380004FF001003C4908709DF80C003B49087083
:101390002DE02068C068014620468847042820DBED
:1013A000206880680346022202A9204698472068E8
:1013B00080680346022201A9204698474FF00000AA
:1013C00002A9009068460BF0C9FC4FF0010001A98A
:1013D000009068460BF0C2FC4FF0000026490870F0
:1013E00000BF04E04FF000002349087000BF00BFB9
:1013F00005F10100C0B205460A2DAADB00BFB7E720
:1014000010B586B01E48006802F023F8FFF799FF78
:1014100002A804AB03AA05A900901948006802F0CD
:10142000EFFA01200299CDE900101648DDE9032307
:1014300005990068FFF731FC04F02CFA04460068B7
:101440000069014620468847FFF789FC01E0FFF765
:1014500078FF08490868016889880268D288A1EB8A
:1014600002010029F3D04FF0000006B010BD0000CB
:101470000C0100200800002034000020350000206E
:101480000C000020F000002030B58BB005464FF076
:101490000100044615E0224651A102A807F006F912
:1014A000002301AA0AA902A80CF06AFC24222846FB
:1014B000019907F09CFA04F10100044605F12400AB
:1014C0000546072CE7DD0BB030BD4FF00100474962
:1014D00008704FF000007047F0B5CDB006464448A4
:1014E00007464248007810B10EA8FFF7CDFF002054
:1014F0004FF47A41B122C823CDE90932CDE90B106E
:1015000002204FF4A0710EABCDE90530CDE90710F4
:101510003648007808B13F2000E0002094214122A5
:10152000CDE90126CDE90310324864234FF490320F
:1015300039460090304800680EF0C3FB04464FF077
:10154000C8004FF4A0714FF00002CDE900210290D5
:10155000C4F59032114607EB040210464FF0000329
:101560004FF021020BF066FD04F57A42394622481D
:1015700000680EF0BAFB05464FF000001B490870EA
:101580002DB91E48006810B14FF0010008701B48CB
:1015900005604DB0F0BD00B587B019480068C0B90E
:1015A0004FF0210006904FF00000059004904FF49A
:1015B000A07003904FF0C80002900F48006802A985
:1015C000CDE9001003AB04AA05A906A80CF092F817
:1015D00002E00120FFF780FF002007B000BD0000FF
:1015E0007369676E61747572652564004C00002034
:1015F00000000810434D5631F00000204800002044
:101600001400002038B504464FF4FA7020602068BA
:1016100080B20090694604F108000BF09FFB38BDD2
:10162000C160026170471FB500204FF4FA710423B6
:101630007CA2CDE90010014689A00CF00DFB002032
:101640004FF44871042389A2CDE90010014695A00A
:101650000CF002FB00204FF42F71042394A2CDE97B
:1016600000100146A1A00CF0F7FA00204FF46171C0
:101670000423A1A2CDE900100146AEA00CF0ECFAC3
:10168000002203A976A00CF07BFB002202A985A012
:101690000CF076FBAA48DDE90221FFF7C1FF00222A
:1016A00003A992A00CF06CFB002202A9A1A00CF0EF
:1016B00067FBA448DDE90221FFF7B2FF1FBD08B5B3
:1016C0004FF00100009068460BF0A4FBFFF7ABFF62
:1016D0009B48FFF797FF9B48FFF794FF9A480068E5
:1016E00008B1FEF78EFE9948006803F05CF900200F
:1016F000FFF7D4FC002008BDF8B504460D4660682D
:10170000B0F1004F25D06068A5EB0000216900FB17
:1017100001F0E16805FB01004FF47A7190FBF1F6EE
:101720002068304420602068B0F57A7F02DD0846EA
:10173000206005E02068002802DA4FF000002060F9
:10174000206880B20090694604F108000BF006FBA7
:1017500000BF6560F8BD2DE9F04186B07C480068A7
:1017600001F077FE00217A48006802F0E0F80446B4
:1017700004B3A1886288A1EB0201084601EBD07195
:1017800002EB61018FB22189E288A1EB02010846D8
:1017900001EBD07102EB61011FFA81F8C7F1A005DE
:1017A000A8F1640629466648FFF7A6FF314665485A
:1017B000FFF7A2FF02A804AB03AA05A900906448A2
:1017C000006802F01DF901200299CDE9001061487E
:1017D000DDE9032305990068FFF75FFAFFF7BFFA19
:1017E000002006B0BDE8F08110B54FF4FA74046033
:1017F0000172C26003614FF00044446010BD00B547
:101800004FF448734FF4FA7200214D48FFF7ECFF94
:101810004FF461734FF42F7201214A48FFF7E4FF40
:1018200000BD000040632050616E2F74696C745FCE
:1018300064656D6F2050616E2061786973207072ED
:101840006F706F7274696F6E616C206761696E2072
:101850002864656661756C7420353030290000009D
:1018600050616E2050206761696E00004063205017
:10187000616E2F74696C745F64656D6F2050616E6A
:101880002061786973206465726976617469766530
:10189000206761696E202864656661756C74203804
:1018A0003030290050616E2044206761696E00006D
:1018B00040632050616E2F74696C745F64656D6F56
:1018C0002054696C7420617869732070726F706F36
:1018D0007274696F6E616C206761696E202864653F
:1018E0006661756C742037303029000054696C745F
:1018F0002050206761696E0040632050616E2F7434
:10190000696C745F64656D6F2054696C74206178D4
:1019100069732064657269766174697665206761B0
:10192000696E202864656661756C742039303029D1
:101930000000000054696C742044206761696E00E7
:10194000C8010020DC0100200C010020080000205C
:101950000C000020F0000020F0B505AC70CC12F0B7
:10196000010F17D011F0010F0AD01F78276013F86C
:10197000017C2F60A3EB000717F8017C376020E0A3
:1019800013F8017C27601F782F60A3EB00073F78D6
:10199000376016E011F0010F09D0A3EB00073F7884
:1019A00027601F782F6013F8017C376009E0A3EBF4
:1019B000000717F8017C276013F8017C2F601F785F
:1019C0003760F0BD2DE9F04F88B007468846914654
:1019D000F948006803904FF0000082468346049067
:1019E00006464FF0610005462BE04FF09D0004468F
:1019F00022E005A806A907AACDE9002102904FF42C
:101A0000A071039801FB0500204403462A462146A5
:101A10004FF4A070FFF7A0FF079850448246069845
:101A200058448346DDE904010844049004F10100B0
:101A3000044606F101000646A32CDAD305F10100A5
:101A40000546672DD1D3BAFBF6F03870BBFBF6F034
:101A500088F800000498B0FBF6F089F8000008B0A0
:101A6000BDE8F08F2DE9F04F87B004460D461646CD
:101A700020783178884202DA94F8008001E096F804
:101A800000802878404501DA2878804608EB480134
:101A900008464FEAE17100EB9171C1F387092078A4
:101AA000A0EB090020702878A0EB0900287030789E
:101AB000A0EB0900307020783178884201DD27786A
:101AC00000E037782878B84201DD287807463846A4
:101AD0000FF01AFF02460B46CDE900010020B7497E
:101AE0000FF0BAFDCDE902010FF084FD82462178A6
:101AF000084610F092F85146039010F0ADF8834676
:101B00002978084610F089F85146039010F0A4F89F
:101B100005903178084610F080F85146039010F097
:101B20009BF80490584610F06AF82070059810F061
:101B300066F82870049810F062F8307007B0BDE8BD
:101B4000F08F38B504464FF00000207200906846D0
:101B50000BF0D6FF4FF00000207038BD10B50446E2
:101B60002046FFF7EEFF204610BD704738B505460A
:101B70000C4668460FF066FB00BF00980FF098FA1D
:101B8000A042FAD30CF020FA38BDF8B504460D4651
:101B90004FF00000064619E04FF000000090684644
:101BA0000BF0AEFF4EF660212046FFF7DFFF6178B5
:101BB000834A02EB810108460BF0A2FF4EF660213A
:101BC0002046FFF7D3FF06F101000646AE42E3DBF5
:101BD000F8BDF0B587B005464FF0000006904FF015
:101BE000A00005904FF064000490764800680090D3
:101BF00004AB05AA05F1010106A8FEF7DCFD0446C9
:101C0000002C1BDD214670A00BF05EFF0BF0B0FD39
:101C1000029020460FF0FAFF07466F4910F01CF8BB
:101C200006460FF0ECFF039003A80BF0B1FD042172
:101C30002846FFF7AAFF02A80BF0AAFD07B0F0BDE7
:101C400038B504466078072800DD38BD4FF0000045
:101C5000009068460BF054FF4EF660212046FFF7D7
:101C600085FF6178564A02EB810108460BF048FF78
:101C700000BFEAE770B586B00446684661784FF069
:101C80009D024FF0A3054FF061034FF067060180FE
:101C900042808580C380068100BF4FF001031A4651
:101CA000694648480068FEF75AFD03AA04A905A83A
:101CB000FFF788FE03AA04A905A8FFF7D3FE03AA2D
:101CC00004A905A80AF05AFF06B070BD30B589B066
:101CD00004460FF06BF80546207AF0B14FF0210072
:101CE00008904FF00000079006904FF4A070059008
:101CF0004FF0C80004904FF000003249096804AA70
:101D0000CDE90021029005AB06AA07A908A80BF0AF
:101D1000DFFD2046FFF7AEFF1DE02078D8B14FF081
:101D2000210008904FF00000079006904FF4A0703B
:101D300005904FF0C80004904FF001002149096858
:101D400004AACDE90021029005AB06AA07A908A8BC
:101D50000BF0BEFD00BF2078062871D2DFE800F04E
:101D60000312407184B065B1201D0FF06BFA4FF083
:101D7000010020704FF00000089008A80BF0C0FE92
:101D800000BFA6E01DB94FF00000207013E06168AD
:101D900008460FF08DF9114988420CD94FF0000028
:101DA000607004F104000FF04DFA2046FFF748FF81
:101DB0004FF0020020708CE00C01002000E06F402A
:101DC000D4320110F0000020676F6F646E6573738A
:101DD0003D25640A0000000000004843D0121300B3
:101DE000B5B903212046FFF7D0FE201D0FF02AFAD7
:101DF000607830B94FF00100089008A80AF0F6FDAD
:101E000002E04FF0010020724FF00300207016E056
:101E1000616808460FF04CF9674988420FD9201DC8
:101E20000FF010FA607800F1010060706078082807
:101E300002D14FF0000060702046FFF701FF48E03C
:101E400043E035B1201D0FF0FDF94FF00400207084
:101E500009E0616808460FF02BF95849884202D919
:101E60002046FFF76EFE34E09DB9607850B94FF020
:101E70000000089008A80AF0B9FD04212046FFF7E9
:101E800084FE02E02046FFF7A4FE2046FFF759FE3D
:101E900015E0616808460FF00BF9494988420ED9F0
:101EA000607830B94FF00000089008A80AF09EFD55
:101EB00000BF2046FFF745FE4FF00500207008E008
:101EC00015B92046FFF73DFE03E02046FFF739FE37
:101ED00000BF00BF207810B1012009B030BD002044
:101EE000FBE72DE9F04104460D46012D02DC002000
:101EF000BDE8F0815EE00EF059FF06460CF064F894
:101F0000207820B101280CD002284ED128E0201DD5
:101F10000FF098F94FF0010020702046FFF790FE77
:101F200047E066B1201D0FF08DF94FF001006070A1
:101F30002046FFF785FE4FF0020020700FE0616839
:101F400008460FF0B5F81F49884208D904212046F9
:101F5000FFF71BFE2046FFF7F4FD0020C8E728E04E
:101F60004EB9677804212046FFF70FFE2046FFF7A1
:101F7000E8FD3846BCE7616808460FF099F80E495D
:101F8000884211D9201D0FF05DF9607800F1010041
:101F90006070617805F10100814202D14FF00100CB
:101FA00060702046FFF74CFE03E02046FFF7C9FDB6
:101FB00000BF00BF9FE7000040420F00008793036F
:101FC000D012130060E3160070B5044600BF4FF056
:101FD0000000206200BF4FF0FF30A08247F6FF7084
:101FE0006082208240F2FF10A18860F3CB01A180C3
:101FF000618960F3CB01618105E0A569A868A061F2
:1020000028460EF07CF8A0690028F6D104F11800EB
:10201000E06170BD10B504464FF00000A06104F10E
:102020001800E0612046FFF7CFFF204610BD10B535
:1020300004462046FFF7C8FF204610BD4189C1F382
:10204000C801A1F58072FF3A0AD0D0F80A104160A9
:10205000C189018140F2FF11428961F3CB024281C3
:10206000704710B5B0F910408C4201DD0CB204820B
:10207000B0F91240944201DD14B24482B0F9144028
:102080009C4201DA1CB2848210BDF8B504460D46AC
:10209000A888C0F3090003462888C0F3C800024698
:1020A0006888C0F3090001462046FFF7DAFF60891F
:1020B000C0F3C800A0F58071FF3905D12868C4F8C5
:1020C0000A00A888E08103E0A888C0F30900E08145
:1020D00000BF6A88C2F30902A2F101021046AA8871
:1020E000C2F309021146A1EB0002009200BF69464B
:1020F00004F120000DF0EAFFF9480078F0B139460C
:102100000C200EF01DF806000AD030462968016048
:10211000A98881804FF00001816000BF064601E080
:102120004FF00000E1690860E069006800B9F8BD9F
:10213000E069006800F10800E06100BF00BFF6E759
:1021400070B505460C4604F1200105F120000DF0A4
:10215000BDFFB4F914000346B4F912000246B4F905
:10216000100001462846FFF77CFF2089C0F30901D3
:102170002889C0F30900814203DD2089C0F30900EA
:102180002881D748007850B1A069E9690860E06902
:10219000E8614FF00000A06104F11800E06170BD3B
:1021A0004FF0000101618160416000F10401C160F4
:1021B0004FF0FF3101804FF0010181824FF00001AB
:1021C0008161704770B50446606800B905E04FF45E
:1021D000E972C4A1C9A006F089FB4FF00000A0601D
:1021E0004FF0FF3020804FF00000A0610DE020692B
:1021F00000680546206930B121690846FFF717FFDE
:1022000006460DF07CFF256100BF20690028EED155
:1022100070BD10B503460DE059680846FFF70EFF84
:102220005868006804465968186908605868186159
:102230005C6000BF58680028EED110BD10B50446A0
:102240002046FFF7E6FF2046FFF7BCFF204610BD03
:1022500030B503460D4616E0286804462046FFF7D1
:10226000EDFEB3F90000A188C1F3C801401AB3F92B
:102270001410884205DD20682860186920601C6100
:1022800000E030BD00BF28680028E5D100BFF8E7B6
:1022900010B50446A068E060E0680068A060A0682F
:1022A00020B1A06801462046FFF7D2FF10BD10B54F
:1022B000044604F104012046FFF7CAFF04F10400BC
:1022C000E060E0680068A060A06820B1A0680146F6
:1022D0002046FFF7BDFF10BD2DE9F04704460D462F
:1022E0002888C0F3C800B4F90010884206D02888B6
:1022F000C0F3C80020802046FFF7D9FF44E068887B
:10230000C0F30901A0680089C0F30900814203DD20
:102310002046FFF7BDFF37E0A888C0F30901A06899
:10232000C088C0F30900814200DA30E0A1680846A5
:102330002946FFF7AAFE17E0A0680068074638683C
:10234000A1680860A16808463946FFF7F9FE2FB179
:102350003846FFF76CFE82460DF0D1FEA0680146BC
:102360002046FFF775FF00BFA068006848B1A88845
:10237000C0F30901A0680068C088C0F30900814269
:10238000DADA0020BDE8F087A0680028B7D100BFE6
:10239000494624200DF0D4FE5FEA000804D04046F0
:1023A000FFF738FE804601E04FF0000006463EB9D8
:1023B000A069014655A00BF087FB4FF0FF30E1E725
:1023C000A06900F10100A061A0683060E0680660CB
:1023D000E66029463046FFF758FE0020D2E7024665
:1023E0004FF00003184604E000F1010318460B68A3
:1023F00019460029F8D1704770B505461446196092
:10240000216008461A460BE0066806B909E006682E
:10241000304616683246066806B902E0066830465D
:10242000F2E700BF16681E604FF00006166070BD30
:10243000F0B50646059D2C4628463EE054B30F688D
:1024400047B3C0B11768B7B117683F6AD1F800C089
:10245000DCF820C067450EDD1768D3F800C0CCF863
:1024600000701F683F681F601F683F681760A0F119
:102470000107384621E00F68D3F800C0CCF800709F
:102480001F683F681F601F683F680F60A4F1010765
:102490003C4612E080B1176877B11768D3F800C0E6
:1024A000CCF800701F683F681F601F683F681760A6
:1024B000A0F10107384600E0F0BDBFE730B587B0B6
:1024C0000446206908B907B030BD2069014605AB54
:1024D00006AA2046FFF790FF4FF00100054643E0B3
:1024E000680000202E2E5C2E2E5C636F6D6D6F6E6B
:1024F0005C626C6F622E6370700000002161637417
:10250000697665426C6F627300000000626C6F62F6
:10251000732025640A0000004FF00000049003902F
:1025200004A8029003A801900DE002AB05AA06A939
:1025300020460095FFF77CFF01AB05AA06A92046BF
:102540000095FFF775FF06980028EED10598002842
:10255000EBD10199086002990860049806900398ED
:1025600005904FEA4500054605980028D4D1069805
:10257000206100BFA7E770B50646306900B970BD9D
:1025800035692C680EE0286A216A884200DB06E083
:1025900040F2CB12AFF2B40104A006F0A7F9254631
:1025A00028680446002CEED100BFE8E7692D3E6D97
:1025B0006F6D656E74732E61726561203E3D206A99
:1025C0002D3E6D6F6D656E74732E617265610000D6
:1025D0002DE9F04104460E464FF007034FF01C0270
:1025E000FB4904F104000DF0DAFDA0F104000446FB
:1025F0004FF0000004F1BC04A0774FF01400A0627B
:102600004FF0640020844FF0140060844FF0050008
:10261000A0854FF00600E0854FF0010084F83000FF
:10262000E6604FF47A700DF06EFD20614FF000000F
:10263000A082A084E0844FF044000DF06DFD0746B9
:10264000E4480146384601F039FB074644F8BC0D22
:102650004FF0000005460AE0C5EBC502211D01EB65
:1026600082010846FFF7AEFD05F101000546072D82
:10267000F2DB2046BDE8F08170B50446206830B139
:102680002168084601F041FB05460DF038FDD4F8FD
:10269000CC1008460DF02FFD07231C22CE49201D2B
:1026A00006F09AFA204670BDF0B506460B46144671
:1026B0004FF000073D4639463A4638462FE033F89A
:1026C000117047B912B903EB41073A4600F101070F
:1026D000BFB238461BE0CAB133F81170178001F160
:1026E000010733F81770578001F1020733F81770AC
:1026F000978001F1030733F81770D78001F10407C1
:1027000033F81770178102F10A073A4600BF05F146
:102710000107BFB23D4601F10507BFB23946A542E8
:10272000CDDBF0BD2DE9FE4F0C461546A188628831
:102730001144084601EBD0714FEA61010E46218930
:10274000E2881144084601EBD0714FEA61010F465F
:10275000A9886A881144084601EBD0714FEA6101EB
:1027600088462989EA881144084601EBD0714FEA6E
:1027700061018946A7EB090108460FF047FAA8EB6B
:102780000601009008460FF041FA0190DDE90001D2
:102790000EF002FB834691490FF05EFA90490290D9
:1027A0000FF004FA824650460FF022FA00B2BDE85C
:1027B000FE8F2DE9F0418AB006464FF000073846FB
:1027C0003C463D4628E051F82080274604F1010CA4
:1027D0001FFA8CFC64464DF8278000F101073B4648
:1027E00014E051F823703F8807F0070751F820C024
:1027F000BCF800C00CF0070C674503D14FF001078F
:102800003D4600E006E003F101073B46B2F90070E7
:102810009F42E6DC00BF1846B2F90070874201DD36
:102820000A2CD0DB75B14FF00007384606E05DF8A2
:10283000207041F8207000F101073846A042F6DB15
:1028400027B217800AB0BDE8F0812DE9F0410646B5
:102850001C46A4B18F88B1F802C067443D4607EB1F
:10286000D5774FEA6707B2F804C0B2F80280C444D3
:1028700060460CEBD07CA7EB6C073BB213E00F89F2
:10288000B1F806C067443D4607EBD5774FEA6707C6
:10289000B2F808C0B2F80680C44460460CEBD07CA5
:1028A000A7EB6C073BB2002B03DA584200B2BDE83D
:1028B000F0811846FBE72DE9F04F85B082460D46C2
:1028C00016461F464FF0000004460EE055F824005F
:1028D0000246394650460E9BFFF7B7FF80B22DF8EF
:1028E000140004F1010080B20446B44201DA0A2C5B
:1028F000ECDB30E04FF001000446834623E0601E2D
:102900003DF810003DF81410884218DD3DF81480A1
:10291000A4F101003DF810002DF81400A4F101000D
:102920002DF8108055F8249055F8200045F8240023
:10293000A4F1010045F820904FF00000834604F117
:10294000010080B20446B44201DA0A2CD7DBBBF1A5
:10295000000F00D000E0CDE700BF05B0BDE8F08F6C
:102960002DE9F04F8CB014464FF0000A5046CDF8D8
:1029700028A0CDF82CA06CE051F820A0BAF804A053
:1029800051F820B0BBF802B0AAEB0B0A51F820B006
:10299000BBF808B051F820E0BEF806E0ABEB0E0B38
:1029A0000AFB0BF24FF0640A02FB0AFA4FF4FA7BBF
:1029B000BAFBFBF74FF4C87A02FB0AFA4FF0640B3C
:1029C000BAFBFBFA0AEB020C4FF000031E462FE0A5
:1029D0004120001000200810DD20001000003443CA
:1029E000560E4940984200D11FE051F823A0BAF892
:1029F00004A051F823B0BBF802B0AAEB0B0A51F8BF
:102A000023B0BBF808B051F823E0BEF806E0ABEB0A
:102A10000E0B0AFB0BF8474506D8E04504D806F133
:102A2000010A1FFA8AFA564600BF03F1010A53460B
:102A3000B4F900A09A45D5DCDDF828A0564505DD9F
:102A40000A9691464FF0010ACDF82CA000F1010A38
:102A50005046B4F900A082458EDCDDF82CA0BAF116
:102A6000000F03D14FF0000AA4F800A04FF0000AB5
:102A70005046554638E051F820A0BAF804A051F865
:102A800020B0BBF802B0AAEB0B0A51F820B0BBF89B
:102A900008B051F820E0BEF806E0ABEB0E0B0AFBE5
:102AA0000BF24FF0640A02FB0AFA4FF4FA7BBAFB0E
:102AB000FBF74FF4C87A02FB0AFA4FF0640BBAFB3B
:102AC000FBFA0AEB020C4F450BD8E14509D851F847
:102AD00020B0AA4605F1010E1FFA8EFE75464DF88C
:102AE0002AB000F1010A5046B4F900A0824501DD88
:102AF0000A2DC0DB4FF0000A504606E05DF820A02A
:102B000041F820A000F1010A5046A842F6DB0FFA76
:102B100085FAA4F800A00CB0BDE8F08F70B50346AC
:102B20000C46D3F8CC5029464FF00005284616E055
:102B300000EB800531F8155025F0070595420BD1C3
:102B400000EB800531F8155005F0070545EA04054E
:102B500000EB800621F8165000F101052846B3F875
:102B6000D0508542E4DC70BD2DE9F04782460D4629
:102B70001646688800B20146A88800B20746E88871
:102B800000B20246288900B28446708800B203462B
:102B9000B08800B28046F08800B20446308900B2A6
:102BA000814699420EDBA24201DC644505DD4A45BF
:102BB00008DCE14501DD944204DCA1EB080000B231
:102BC000BDE8F0878B420CDBA24201DC644505DDE9
:102BD0004A4506DCE14501DD944202DCD81B00B227
:102BE000EEE7A2420DDB994201DCBB4205DD414527
:102BF00007DCB84501DD8B4203DCA2EB090000B223
:102C0000DEE794420DDB994201DCBB4205DD414524
:102C100007DCB84501DD8B4203DCA4EB0C0000B2FD
:102C2000CEE747F6FF70CBE770B504460D46164673
:102C3000288828B1308818B128883188884201D185
:102C4000002070BD94F8EC00022809D02A8802F018
:102C5000070211462268104601F01EFE01280DD120
:102C600094F8EC0002280BD0328802F007021146DB
:102C70002268104601F010FE012801D00020E0E794
:102C8000324629462046FFF76FFFB4F8EA10884223
:102C900001DC0120D5E70020D3E72DE9F04F95B006
:102CA00006464FF00000129056F8CC0FB18801EBA9
:102CB000810100EB4100824656F8CC09044648E009
:102CC00004F10A0007463FE03A4621463046FFF746
:102CD000ABFF38B32088072816DC3888072813DCB8
:102CE000129800F1010080B2129012984FEAC04091
:102CF0004FEA10408146208840EA09002080388849
:102D000040EA090038801CE0208807280BDD38885D
:102D1000072808DC208820F007008146388840EA30
:102D2000090038800DE0388807280ADD2088072848
:102D300007DC388820F007008146208840EA090037
:102D4000208007F10A0007465745BDD304F10A0069
:102D500004465445B4D3D6F8CC0004462BE0208872
:102D6000072800DC24E0208820F00700814604F1D9
:102D70000A00074619E03888072800DC12E0388886
:102D800020F007001390139881450AD03A46214657
:102D90003046FFF749FF20B149463046139AFFF706
:102DA000BDFE00BF07F10A0007465745E3D300BF49
:102DB00004F10A0004465445D1D3D6F8CC0000F5FE
:102DC00077700B904FF0010BD6F8D4804FF00000D5
:102DD000A6F8D8003CE14FEACB404FEA10408146CC
:102DE0004FF000001490D6F8CC00044611E0208883
:102DF00020F00700484509D1BDF9501088B200F114
:102E0000010000B2149001A840F8214004F10A002A
:102E10000446544503D2BDF950000A28E7DB14AA42
:102E200001A93046FFF79CFDBDF95000022800DAE9
:102E30000AE14FF0000005460E900F90109011909F
:102E40002FE001A9119851F82000408851F8251071
:102E50004988884200DD119501A90F9851F820009A
:102E6000C08851F82510C988884200DD0F9501A956
:102E7000109851F82000808851F8251089888842E0
:102E800000DA109501A90E9851F82000008951F838
:102E900025100989884200DA0E9505F1010000B27B
:102EA0000546BDF950008542CBDB01A9119851F8C8
:102EB00020004088A8F80200109851F8200080886F
:102EC000A8F804000F9851F82000C088A8F8060060
:102ED0000E9851F820000089A8F80800109851F8C1
:102EE0002000818801AA119852F820004088091A10
:102EF0000E9852F82000028901AB0F9853F8200079
:102F0000C088101A81420DDD012001A9009011989E
:102F100051F820000346BDF8500082B23046FFF75A
:102F2000CAFC0CE0002001A900900F9851F8200085
:102F30000346BDF8500082B23046FFF7BCFC14AA2D
:102F400001A93046FFF735FCBDF95000022800DA30
:102F50007AE0BDF95000052802DD4FF0050014901D
:102F60004FF0000005460D9013E00D984FEAC04069
:102F70004FEA10400D9001A850F82500008800F09D
:102F800007000D9940EA01000D9005F1010000B223
:102F90000546BDF950008542E7DBBDF85000A0F1C1
:102FA000010000B205464FF000000C9019E00C98AB
:102FB0004FEAC0404FEA10400C9001A850F825009D
:102FC000008800F007000C9940EA01000C904FF0D7
:102FD000000001A951F825100880A5F1010000B2F8
:102FE0000546002DE3DADDE90C10884211DA0D9870
:102FF000A8F80000BDF95000401E01AB53F82000B6
:103000000246019801463046FFF78CFBA8F80A00FB
:1030100010E00C98A8F8000001980246BDF9500095
:10302000401E01AB53F8200001463046FFF77AFB03
:10303000A8F80A0008F10C008046B6F8D80000F1A4
:103040000100A6F8D80000BF0BF1010000B28346D2
:103050001298834503DC0B988045FFF4BCAED6F88C
:10306000CC00044620E096F8EC00032806D1208826
:10307000072816DD4FF00000208012E02088072886
:103080000CDC96F8EC00022808D02288D2B2114657
:103090003268104601F000FC012802D14FF0000018
:1030A000208004F10A0004465445DCD315B0BDE885
:1030B000F08F2DE9FC4F96464FF000000446024683
:1030C000009069E031F8120000B95DE002F1010002
:1030D00031F8105002F1020031F8106002F10300E3
:1030E00031F8107002F1040031F810C004F1010051
:1030F00080B2019002F1050080B2034640E031F851
:10310000130000B933E003F1010031F8108003F13E
:10311000020031F8109003F1030031F810A003F120
:10312000040031F810B045450FDC4E450DDB574526
:103130000BDCDC4509DB4FF0000021F813000098A0
:1031400000F1010080B2009010E0A8450EDCB1450E
:103150000CDBBA450ADCE34508DB4FF0000021F840
:103160001200009800F1010080B2009000BF0198A9
:1031700000F1010080B2019003F1050080B2034626
:1031800001987045BBDB00BF04F1010080B204462A
:1031900002F1050080B20246744593DB0098BDE859
:1031A000FC8F2DE9F74F83B082464FF0000002906C
:1031B00003460090C2E031F8130000B9B5E003F116
:1031C000010031F810C003F1020031F8108003F162
:1031D000030031F8109003F1040031F810B00298A8
:1031E00000F1010080B2019003F1050080B20246B7
:1031F00094E031F8120000B987E002F1010031F8E3
:10320000104002F1020031F8105002F1030031F8D1
:10321000106002F1040031F8107064451BDCACEB67
:103220000500BAF8E8E0704515DCB14501DC5E4503
:1032300003DDB9450FDC5F450DDC03F1010021F82A
:1032400010404FF0000021F81200009800F101003A
:1032500080B2009058E045451BDBA4EB0800BAF8AB
:10326000E8E0704515DCB14501DC5E4503DDB9459C
:103270000FDC5F450DDC03F1020021F810504FF028
:10328000000021F81200009800F1010080B20090C7
:103290003AE04E451BDCA9EB0700BAF8E8E07045C0
:1032A00015DCA44501DC444503DDAC450FDC454598
:1032B0000DDC03F1030021F810604FF0000021F84D
:1032C0001200009800F1010080B200901CE05F4500
:1032D0001ADBA6EB0B00BAF8E8E0704514DCA44555
:1032E00001DC444503DDAC450EDC45450CDC03F157
:1032F000040021F810704FF0000021F8120000982F
:1033000000F1010080B2009000BF019800F10100BF
:1033100080B2019002F1050080B20246DDF814E0AF
:1033200001987045FFF665AF00BF029800F10100FB
:1033300080B2029003F1050080B20346DDF814E08C
:1033400002987045FFF637AF009806B0BDE8F08FE1
:10335000FEB505464FF0FF3006464FF00000074629
:1033600004465AE000BFD5F8C8100846694601F087
:10337000ADFA0028F7D00098401C00D14EE004F1CF
:1033800001000446009818B906F10100064644E021
:103390009DF80410009860F302018DF804109DF868
:1033A0000400C0F30200002836DDAFBBBDF8040006
:1033B00066F3CB00ADF8040000984FEAD00000900F
:1033C0000098C0F30800ADF8060000984FEA5020BE
:1033D00000900098C0F30800BDF80610C1F3090181
:1033E0000844ADF808009DF80410C1F30201A1F1F2
:1033F0000101C1EBC10205F1040101EB82010846A4
:1034000001A9FEF769FF002806DA4FF00100074620
:103410002146FBA00AF058FB00BFA3E700BF4FF016
:103420000000044612E0C4EBC402291D01EB820136
:103430000846FEF7EEFEC4EBC402291D01EB820133
:103440000846FFF73BF804F101000446072CEAD3D5
:10345000FEBD2DE9F04F87B004462046FFF778FF08
:103460004FF0000082464FF0010004F1D004A0723A
:103470004FF00000054620802081A4F1D004A0E098
:1034800094F8EC00022807D021680846691CC9B2EC
:1034900001F002FA012802D14FF0010001E04FF0E3
:1034A0000000814604F1CC04A08800EB80000646B1
:1034B0004FF000008346206800EB46000690A0888D
:1034C000A4F1CC040590C5EBC50104F1040000EBA8
:1034D0008100006907464DE0B9F1000F03D000BF3D
:1034E000386A0A2808DBB9F1000F06D100BF386A34
:1034F000D4F8E410884200DA37E001A8398A049150
:10350000798A0391B98A0291B988C1F3C80101800F
:1035100000BF05F1010054F8CC1F21F81600BDF8DA
:10352000101006F10100226822F81010BDF80810F2
:1035300006F10200226822F81010BDF80C1006F106
:103540000300226822F81010BDF8041006F10400F0
:10355000226822F81010A08800F10100A080A4F1D8
:10356000CC0406F10500064600BF386807460BF19B
:10357000010083464FB1B4F8D000B4F8DC108842A3
:1035800003DAB4F8DE005845A6D8B9F1000F15D11A
:1035900012E0B4F8D0100598081A80B2024620460E
:1035A0000699FFF7FEFD8046B8F1000F00D104E058
:1035B0000AEB080080B28246EBE700BF05F101008C
:1035C0000546072DFFF45CAFB4F8D0000246D4F8EE
:1035D000CC0001462046FFF76CFD504480B2824685
:1035E00094F8EC0060B154F8CC0FA18801EB810194
:1035F00000EB4100A060A4F1CC042046FFF74DFB96
:10360000BAF1000F02D194F8EC0078B1B4F8D00010
:103610000246D4F8CC0001462046FFF745F8804624
:10362000B4F8D000A0EB0800A4F8D0004FF00000E0
:1036300004F1DA04E080208104F8DA0905460AE0A2
:10364000C5EBC502211D01EB82010846FEF7BAFD5C
:1036500005F101000546072DF2D307B0BDE8F08F54
:103660002DE9F04703460F46944639464FF00800CF
:103670008046BCF1120F02D20020BDE8F08793F81B
:10368000DA0028B9B3F8E200B3F8D890484506DB71
:103690004FF00000088048804FF00200EDE7B3F8DB
:1036A000E00060B9B3F8E20048B94AF65520088056
:1036B00008F1010080B2804601F1020001464AF69D
:1036C0005620088053F8D40FB3F80E9009EB49093F
:1036D00030F82900024614468A80B3F80E9009EBB0
:1036E0004909186800EB89008088B3F80EA00AEB3E
:1036F0004A0AD3F8009009EB8A09B9F80290A0EBC6
:10370000090085B204EB050080B204464D81B3F890
:103710000E9009EB4909186800EB89000089B3F89D
:103720000EA00AEB4A0AD3F8009009EB8A09B9F80F
:103730000690A0EB090086B204EB060080B20446B6
:103740008E81B3F80EA00AEB4A0AD3F8009009EB79
:103750008A09B9F80290284605EBD07A09EB6A0984
:103760001FFA89F94A4604EB020080B20446CA8077
:10377000B3F80EA00AEB4A0AD3F8009009EB8A09C5
:10378000B9F80690304606EBD07A09EB6A091FFAC1
:1037900089F94A4604EB020080B204460A81B3F874
:1037A0000E9009EB4909186800EB8900408980B246
:1037B000024604EB020080B20446CA814C80D889DC
:1037C00000F10100D881A3F1D4034FEA48404FEA49
:1037D000104052E72DE9F74F81B004468B465D4615
:1037E0004FF007000090B4F8E00000EB80000746BF
:1037F000039810280CD2002004B0BDE8F08F000020
:10380000686561702066756C6C2025640A00000094
:10381000B4F8E000B4F8D010884208DB94F8EC006B
:1038200028B159462046039AFFF71AFFE4E794F8B7
:10383000DA0028B9B4F8E000B4F8D010884206DB0A
:103840004FF00000288068804FF00200D4E7B4F801
:10385000E00050B94AF655202880009800F1010098
:1038600080B2009005F1020005464AF655202880F6
:1038700054F8CC0F30F817000646B046AE8007F17A
:103880000200216831F8101007F10100226832F8B7
:103890001000A1EB00001FFA80F908EB090080B2CC
:1038A0008046A5F80A9007F10400216831F810104D
:1038B00007F10300226832F81000A1EB00001FFAA4
:1038C00080FA08EB0A0080B28046A5F80CA007F148
:1038D0000101226832F81110484609EBD07201EB61
:1038E000620189B20E4608EB060080B28046EE8087
:1038F00007F10301226832F8111050460AEBD0722A
:1039000001EB620189B20E4608EB060080B28046E8
:103910002E81A5F80280A08A00F10100A082A4F106
:10392000CC0400984FEA40404FEA104064E72DE98C
:10393000F04302460D464FF000000746844601461C
:1039400003467DBBB2F8D00000280FDDD2F8CC00D2
:1039500001468888B1F80280A0EB0800B1F8088021
:10396000B1F80690A8EB090800FB08F7B2F8D800F8
:1039700000280FDDD2F8D40003469888B3F80280FF
:10398000A0EB0800B3F80880B3F80690A8EB09088C
:1039900000FB08FC92F8EC00022806D11BB1184687
:1039A000BDE8F08311E00020FAE792F8EC0020B9BE
:1039B00009B10846F4E70020F2E7674501D9084657
:1039C000EEE7BC451AD91846EAE74FF00006344640
:1039D00010E0D2F8CC0030F81400A84204D1D2F89C
:1039E000CC0000EB4400DBE706F10100064604F1E1
:1039F00005000446B2F8D000B042EADC0020CFE770
:103A000030B5039C50F8CC5F0D60858815608568E3
:103A10001D608589A0F1CC00256030BD30B504461D
:103A2000039D642902DCA4F8DC1003E04FF064007D
:103A3000A4F8DC0004F1DC046280A3602574A4F126
:103A4000DC044FF0000030BD2DE9F04389B005469D
:103A50000E4690469946109F68460AF06DFC072E68
:103A600004DD4FF0FF3009B0BDE8F0832968084657
:103A70004B464246694600F0BFFA044614B94FF07F
:103A8000FF30F0E727B124226946384604F0F4FFFE
:103A90002046E8E72DE9F0478CB004468A46904678
:103AA0009946DDE914560AA84FF00001C1808180D3
:103AB0004180018000BF01A80AF03EFC2168084651
:103AC0004B4642460AA900F010FC216808460AABA2
:103AD000424601A900F090FA074627B94FF0FF309F
:103AE0000CB0BDE8F0871EB10A9830600B9870608A
:103AF00025B1242201A9284604F0BEFF3846EFE78D
:103B00002DE9FF4F83B00D4692461E46DDF840B0CA
:103B10004FF000000190804647F6FF7000904CE0A7
:103B20004FF00000044642E04FF000008146029052
:103B300019E055F8290056F8241088420BD055F8A2
:103B40002900008800F0070056F82410098801F0C9
:103B50000701884203D14FF00100029005E009F10E
:103B6000010000B28146D145E3DB00BF029800B1FD
:103B700019E056F82400024655F82800014603983B
:103B8000FEF7F2FF074600998F420BDA009755F8CF
:103B900028101198016056F82410129801604FF017
:103BA0000100019000BF04F1010000B204465C4531
:103BB000BADB08F1010000B28046D045B0DB0198C5
:103BC00007B0BDE8F08FD0F8CC2011467047000058
:103BD00010B504464FF0000120460EF025F801D242
:103BE000FF4810BD4FF07E50FBE77FB5039A1146AA
:103BF000019A10460EF030F80446029A1146009AD7
:103C000010460EF029F8054621460DF0BAFF04B023
:103C100070BD2DE9F04107460D463C460BE02046BD
:103C200004F03EFC06461EB12C603046BDE8F08133
:103C3000A4F580700446002CF1DA4FF000002860F3
:103C400000BFF3E72DE9FF41029A1146009A1046A2
:103C50000EF078F80546039A1146019A10460EF0C8
:103C600071F80646314630460DF0F6FF0746294604
:103C700028460DF0F1FF804639460DF082FF0446DC
:103C800020460DF01BFB04B0BDE8F08110B50246E4
:103C90004FF0000318460DE029B113681B5C03F0D8
:103CA00007038B4203D14FF000031468235400F143
:103CB00001031846B0F5803FEED310BD30B5044681
:103CC0000D462560C748E0624FF07E502063606378
:103CD000C548A0634FF08040E063C44820644FF0C3
:103CE00000012046FFF7D2FF4FF00001084608E030
:103CF0004FF0000204F1100141F8202000F1010111
:103D000008460728F4DB204630BD704710B504464E
:103D1000A163226363634FF0000010BD2DE9F84FEB
:103D200005460F4691464FF0000148460DF0EDFF65
:103D300002D24FF0010001E04FF0000082464FF048
:103D4000000426463BE0696801EB440191F900104C
:103D500008460DF05BFF00903868014600980DF0B2
:103D60007BFF83467868014658460DF00AFF80467F
:103D7000BAF1000F10D0696801EB440191F901100C
:103D800008460DF043FF834641460DF04DFF13D228
:103D900006F1010006460FE0696801EB440191F964
:103DA000011008460DF032FF834641460DF0ADFF8D
:103DB00002D206F10100064604F101000446A8689B
:103DC000A042C0D83046BDE8F88F2DE9FF47044631
:103DD0001D4622E0A16808460DF01FFF81462846D7
:103DE000FFF7F6FE8246524601A92046FFF796FFEE
:103DF00080460DF012FF074649460DF0D7FE0646F5
:103E0000206C014630460DF080FF00D806E0029994
:103E1000084629460DF0B5FE0290DBE700BF029888
:103E200004B0BDE8F08770B506460C46206820F067
:103E300000410D466E4928460DF0F6FE0AD2216873
:103E4000084600210DF061FF02D26948206001E0C0
:103E50006848206070BD2DE9FC4104460E464FF0D5
:103E600000000546019000901CE0616801EB4501EF
:103E700091F9001008460DF0C9FE074601990DF0B2
:103E800080FE0190616801EB450191F9011008463F
:103E90000DF0BCFE074600990DF073FE009005F191
:103EA00001000546A068A842DFD8A16808460DF0C9
:103EB000B4FE0746394601980DF078FE0190A168DE
:103EC00008460DF0AAFE0746394600980DF06EFE32
:103ED000009001A92046FFF7A6FF69462046FFF79C
:103EE000A2FF0198306000987060BDE8FC812DE968
:103EF000FC4F1446B4F802B04BF0010BB1F904E0EA
:103F0000D1F800A00BFB0EAAB4F800B04BF0010BE7
:103F1000DA4455464FF0000A5646534655E04FF0F6
:103F2000000A524641E015F802C0A2F1010A15F854
:103F30000A80B1F904A0CAF1000A924415F80A7087
:103F4000B1F904A0CAF1000A9244AAF1010A15F8D5
:103F50000A90ACEB080ACDF804A0A9EB070ACDF84B
:103F600000A0DDF804A04FEA6A0ACDF804A0DDF84D
:103F700000A04FEA6A0ACDF800A0DDF804A04FFACD
:103F80008AFAD0F804B00BF813A0DDF800A04FFABD
:103F90008AFAD0F804B00BEB430B8BF801A002F1C6
:103FA000020A524603F1010A5346B4F804A09245AE
:103FB00003D9D0F80CA09A45B5D806F1020A5646A6
:103FC000B1F904A005EB4A0A5546B4F806A0B2457B
:103FD00003D9D0F80CA09A45A1D88360BDE8FC8F26
:103FE000000080BFCDCCCC3D000070416666663FCE
:103FF0006F12833A6F1283BA2DE9FF4F93B00446D4
:104000000D4611A80BF0FEFE04F10C0144F62060F1
:10401000FFF7FFFD6060606820B94FF0FF3017B018
:10402000BDE8F08FE0684FEA5000E0602046DDE92F
:104030001512FFF75CFF11A92046FFF70CFF12983D
:10404000039011980490DDE903010CF0A5FE0746EA
:1040500000BF00BF38460DF029F9049038460CF037
:104060003AF8039001460BA8049A0BF0C8FE3846B4
:104070000CF037F800220146049009A80AF07EF9F6
:10408000FF4938460DF07DFD109010980CF029F88E
:1040900080461198014640460DF0DEFD03901298CF
:1040A000014603980DF045FE02464146049007A8DC
:1040B0000AF064F90B9A1146E26A10460DF076FD9B
:1040C00004900CF014F8824653462046DDE90912AC
:1040D000FFF77BFE0646216B084631460DF0BCFD1E
:1040E00003900CF004F8314604900DF04AFD0646AA
:1040F000AE60099868608AF000400346049020464C
:10410000DDE90912FFF761FE0646216B08463146DC
:104110000DF0A2FD03900BF0EAFF314604900DF084
:1041200008FE06462E610999E9600C990846FFF7DA
:104130004FFD0E9010980BF0CEFF0290E16A0846FA
:1041400002990DF033FD03900BF0D1FF04900E990E
:104150000DF082FD82468AF000400346049020461E
:10416000DDE90712FFF731FE0646089801463046A2
:104170000DF0E8FD0190606B014601980DF06CFDBB
:1041800002900BF0B4FF03900E990DF065FD3146DF
:1041900004900DF0CEFD06460999084641460DF003
:1041A000D1FD0146049030460DF000FD834609988C
:1041B000014658460DF050FD02465946049005A8A8
:1041C0000BF01DFEDDE90523DDE90B01FFF70DFD19
:1041D0000D90DDE91123DDE90B01FFF706FD0F90DE
:1041E000A06B01460D980DF01FFD19D2A26B114670
:1041F0000B9A10460DF030FD0590A26B11460C9AFB
:1042000010460DF029FD06900598014640460DF038
:1042100023FD04900698014604980DF08AFD064699
:10422000AE61C5F8148053462046DDE90712FFF75A
:10423000CCFD06460898014630460DF083FD0190FE
:10424000626B1146E26B10460DF006FD009001997D
:104250000DF002FD02900BF04AFF03900E990DF055
:10426000FBFC314604900DF08CFC06462E62C5F82E
:104270001C80AA6911462A6A10460DF046FD0CD230
:10428000D5E90501CDE90301D5E90701C5E9050136
:10429000DDE90312C5E9071200BF6168084604F0B2
:1042A0002EF9A06B01460F980DF04CFD7549019059
:1042B0000DF0D2FC4FF0854102900DF077FC724971
:1042C00003900DF05EFC04900DF092FC8146B9F174
:1042D000000F02DA4FF000008146B9F1640F02DDF1
:1042E0004FF064008146484699E62DE9F04F8DB0C5
:1042F00007460C46164699460BA80BF083FD09A805
:104300000BF080FD06A80BF073FD04A80BF070FD08
:1043100007F10C0144F62060FFF77BFC78607868B9
:1043200020B94FF0FF300DB0BDE8F08FF8684FEACC
:104330005000F860B9F80000042804DDB9F8000066
:10434000A0F1040001E04FF0000080B2ADF81000D1
:10435000B9F80200042804DDB9F80200A0F1040055
:1043600001E04FF0000080B2ADF812004FF00800FD
:10437000ADF81400BDF81000BDF814100844B6F9EB
:104380000410884207DDB088BDF81010A0EB0100D2
:1043900080B2ADF814004FF00800ADF81600BDF87B
:1043A0001200BDF816100844B6F90610884207DD61
:1043B000F088BDF81210A0EB010080B2ADF8160035
:1043C00004AA31463846FFF792FD0BA93846FFF79D
:1043D00042FD4FF000089BE14FF00000054694E1DC
:1043E000012000FA05F010EA080F00D089E125BB92
:1043F000BDF81000042807DDBDF81000A0F104008E
:1044000080B2ADF818000BE04FF00000ADF81800D6
:104410004FF0010000FA05F040EA0800C0B2804603
:10442000BDF81200ADF81A004FF00400ADF81C0002
:10443000BDF81600ADF81E0096E0012D2BD1BDF899
:104440001200042807DDBDF81200A0F1040080B2BC
:10445000ADF81A000BE04FF00000ADF81A004FF075
:10446000010000FA05F040EA0800C0B28046BDF83D
:104470001000ADF81800BDF81400ADF81C0005E000
:10448000DA0FC93F0000C842000020414FF004008D
:10449000ADF81E0068E0022D33D1BDF81000BDF864
:1044A00014100844001DB6F90410884214DDB088C9
:1044B000BDF81010A0EB0100BDF81410A0EB010036
:1044C00080B2ADF81C004FF0010000FA05F040EAA0
:1044D0000800C0B2804603E04FF00400ADF81C00B5
:1044E000BDF81000BDF81410084480B2ADF81800F3
:1044F000BDF81200ADF81A00BDF81600ADF81E00A8
:1045000032E0BDF81200BDF816100844001DB6F9DF
:104510000610884214DDF088BDF81210A0EB0100EF
:10452000BDF81610A0EB010080B2ADF81E004FF0F0
:10453000010000FA05F040EA0800C0B2804603E03E
:104540004FF00400ADF81E00BDF81000ADF81800E3
:10455000BDF81200BDF81610084480B2ADF81A007C
:10456000BDF81400ADF81C0006AA31463846FFF726
:10457000BEFC09A93846FFF76EFCDDE90923DDE939
:104580000B01FFF75FFB0890CA4908980DF0BDFBCF
:1045900001D3B86840B94FF0010000FA05F040EAD5
:1045A0000800C0B280464EE0BDF81800BDF81010FB
:1045B00088420CDABDF81800ADF81000BDF8140000
:1045C000BDF81C10084480B2ADF814003BE0BDF803
:1045D0001A00BDF8121088420CDABDF81A00ADF8C6
:1045E0001200BDF81600BDF81E10084480B2ADF8E8
:1045F000160028E0BDF81800BDF81C100844BDF8EE
:104600001010BDF814201144884208DDBDF81400D4
:10461000BDF81C10084480B2ADF8140013E0BDF8DA
:104620001A00BDF81E100844BDF81210BDF816207F
:104630001144884207DDBDF81600BDF81E1008447D
:1046400080B2ADF81600B8F10F0F59D10498206070
:1046500005986060A18808460DF0DFFA83464FF0A8
:104660007D510DF0F9FA82460DF0C9FAA080A188BB
:1046700008460DF0D2FA4FF07A5101900DF0ECFAA5
:104680004FF0804102900DF091FA83462188084650
:104690000DF0C3FA594603900DF073FA82460DF0FF
:1046A000AEFA2080E18808460DF0B7FA83464FF055
:1046B0007D510DF0D1FA82460DF0A1FAE080E1883B
:1046C00008460DF0AAFA4FF07A5101900DF0C4FAA5
:1046D0004FF0804102900DF069FA834661880846E8
:1046E0000DF09BFA594603900DF04BFA82460DF0FF
:1046F00086FA60807968084603F001FF002012E620
:1047000000BF05F10100C0B20546042DFFF668AEFA
:1047100062E62DE9F04780460C46154695F90010F3
:1047200008460DF073FA81466068014648460DF070
:1047300093FA0746A068014638460DF022FA06466D
:1047400095F9011008460DF061FA074631460DF063
:10475000DCFA02D20020BDE8F08795F90010084687
:104760000DF054FA8146E068014648460DF074FAAF
:1047700007462069014638460DF003FA064695F9CA
:10478000011008460DF042FA074631460DF04CFA8A
:1047900001D20020DFE795F9001008460DF036FA47
:1047A00081466069014648460DF056FA0746A06901
:1047B000014638460DF0E5F9064695F90110084620
:1047C0000DF024FA074631460DF09FFA01D2002081
:1047D000C1E795F9001008460DF018FA8146E06926
:1047E000014648460DF038FA0746206A0146384629
:1047F0000DF0C7F9064695F9011008460DF006FAC6
:10480000074631460DF010FA01D20020A3E701203F
:10481000A1E7F8B505460F46164668464FF0000179
:104820004170017000BFA6F10100072800DDF8BD4E
:104830007968084600210DF0C3F900D1F7E74FF081
:1048400000041DE060B28DF801004FEA142040B270
:104850008DF800002868005D10F0070F05D028686B
:10486000005D00F00700B04207DB6A463946284683
:10487000FFF74FFF08B12868065504F10100044610
:10488000B4F5803FDED3A6F1010005F110013A68CE
:1048900041F8202000BFCAE70246A1F10100072825
:1048A00001DD00207047481E02F1100353F820007C
:1048B000F8E700000000A0414A4901604FF0000203
:1048C00001680A604A608A607047704730B50246E6
:1048D000106880881468E488A0EB040080B2034666
:1048E000E3B11068048804F101001568288010689D
:1048F00000F1080050F8240008601068C08800F13A
:1049000001001468E08010680088A0F53064FE3C67
:1049100002D1204614682080012030BD0020FCE731
:10492000F0B503460C461E68B6881F68FF88A6EBE4
:104930000706B6B231464FF0000630461E6836888C
:10494000354615E01E6806F108062F4605F1010CF4
:104950001FFA8CFC654656F8276044F82060A5F5E0
:104960003066FE3E00D1354600F10106B6B2304653
:10497000884201DA9042E5D31E68F6880E441F682B
:10498000FE801E6836880E441F683E801E6836888A
:1049900040F6FE37BE4205D31E683688A6F6FE36C0
:1049A0001F683E80F0BD026892880368DB88A2EB36
:1049B000030292B211460268D2880A440368DA8080
:1049C000026812880A4403681A800268128840F656
:1049D000FE339A4205D302681288A2F6FE320368BB
:1049E0001A80704700C000200146FE48814201D174
:1049F00000207047FC48814201D10120F9E74FF0C7
:104A0000FF30F6E701464FF0080088614FF02000C4
:104A1000086000BF086810F0080FFBD04FF02000BE
:104A20008861486800F0F8007047016811F0200FB5
:104A300002D04FF0200181614FF0100101604FF072
:104A40000801816170470246106810F0200F02D003
:104A50004FF02000906191604FF00800906100BF1E
:104A6000106810F0080FFBD0506800F0F800704795
:104A70000346012A03D14FF00400186002E04FF012
:104A8000040098614FF00800986100BF186810F0AA
:104A9000080FFBD098680870586800F0F80070475D
:104AA00070B504460D46CF48844210D11A21092022
:104AB00005F04AFCCD48854204D340F68C40CC49F1
:104AC000086017E040F60800C949086012E0C648CF
:104AD00084420ED11B21092005F036FC4FF0C100A5
:104AE000C4490860C449C1F81001C448854201D0D6
:104AF00070BDFDE7B5F57A7F00D2F9E74FF06C00A5
:104B0000A0614FF0110005F067FCB0FBF5F64FEA2D
:104B1000560020612069A6EB0000606100BFE7E756
:104B20004FF0400181617047012903D14FF04002ED
:104B3000026002E04FF040028261704770B50446A7
:104B40000D466DB1A748844203D1122000F07CFCD1
:104B500013E0A548844210D1132000F075FC0CE04E
:104B6000A048844203D1122000F07DFC05E09E485D
:104B7000844202D1132000F076FC70BD2DE9F04193
:104B800005462846FFF730FF06469D4850F8360098
:104B90000446686800F0F80007466762F82F04D101
:104BA0004FF00800A861BDE8F081954800EBC60011
:104BB000406800285FD1202F50D006DC082F0BD092
:104BC000102F0AD0182F54D118E0282F17D0302FCB
:104BD00045D0382F4DD147E000BF4FF02000A861ED
:104BE000606848B1A06838B120684FEA4000A8600A
:104BF0004FF00800A86100E014E03BE000BFD4E9FA
:104C0000021088420DD2606858B1E1686068405C6B
:104C1000A860E06800F10100E0604FF00800A861C2
:104C20001BE000BF4FF00100754901EBC601486071
:104C3000606968B1206958B1A06840B1606830B15E
:104C40004FF0200028604FF00C00A86105E032E032
:104C5000606A40F4806060629CE00BE000BF606AC4
:104C600040F40070606282E0606A40F480706062CC
:104C700000BF7CE09CE0624800EBC6004068012871
:104C8000F8D1402F27D006DC082F0BD0102F0AD0E8
:104C9000382F6BD165E0482F5ED0502F2BD0582F86
:104CA00064D146E000BF4FF02000A861206960B1E8
:104CB000606950B100BF4FF00101206801EB400076
:104CC000A8604FF00800A86104E0606A40F48060CA
:104CD00060625FE06BE0D4E90501401E814203D2CF
:104CE0004FF00400286002E04FF00400A8614FF08C
:104CF0000800A8615BE0206958B1D4E9051088423A
:104D000007D2A868A26921698854A06900F101004E
:104D1000A061D4E90501401E814203D24FF0040096
:104D2000286002E04FF00400A8614FF00800A8617D
:104D30003DE0206958B1D4E90510884207D2A8683F
:104D4000A26921698854A06900F10100A061606A2C
:104D500040F4806060621DE0606A40F40070606250
:104D600005E0606A40F48070606200BF00BFD4E973
:104D7000071088420DD24FF00000E0604FF0200095
:104D800028604FF00C00A861206A00F10100206249
:104D90000CE000BF00212846FFF7D0FE2846FFF7B1
:104DA00044FE4FF00100174941F8260000BF00BF44
:104DB00000BFF8E62DE9F04104462046FFF714FE57
:104DC00080460F4850F838000546606800F0F8004B
:104DD0000646AE61F82E17D14FF00800A061BDE87D
:104DE000F081000000100A4000000E4040420F0019
:104DF000846C08400C61084000600840801A06007E
:104E0000F00100200802002016F0070F7AD1F01000
:104E10000C38142876D2DFE800F011751275192FBE
:104E20001A3034537554697575757575750A4FF078
:104E3000040020604FF00800A06171E000BF4FF057
:104E4000040020604FF00800A06169E000BFD5E9D0
:104E50000410884209D2E86838B1A0686A69E96834
:104E60008854686900F1010068614FF00400206017
:104E70004FF00800A06153E000BF4FF00800A061B0
:104E80004EE000212046FFF759FE4FF00800A061D8
:104E90004FF4803711E0206810F0080F04D0012192
:104EA0002046FFF74BFE09E0A7F10100074627B9AE
:104EB000A86940F48060A86125E0ECE700BF2FE01E
:104EC00000BFD5E90110884209D2286838B1A96825
:104ED0002868405CA060A86800F10100A8604FF05D
:104EE000040020604FF00800A06119E04FF00400BA
:104EF00020604FF00800A061A86940F48060A861BC
:104F000001E0FFE700BF00212046FFF717FE4FF04A
:104F10002C00A0614FF00100FB4941F8280000BFC0
:104F200000BF00BF5BE72DE9F84306460C46174675
:104F300060688046206981464FF00000E060A06113
:104F40006062002F75D1206200BF606880462069D2
:104F500081464FF00000E060A06105463046FFF753
:104F600051FD0546082D0CD0102D0AD0206A00F105
:104F700001002062D4E90710884201D96562BAE0D5
:104F8000E3E7A06878B3606868B320684006000E65
:104F900001463046FFF757FD0546182D0CD0206A14
:104FA00000F101002062D4E90710884203D945F4DA
:104FB000007060629FE0C8E71DE098F800000146BD
:104FC0003046FFF740FD0546282D0DD0206A00F140
:104FD00001002062D4E90710884203D945F400702B
:104FE000606288E0B1E70AE008F101008046E0680D
:104FF00000F10100E060D4E902108842DDD3A0682E
:10500000C8B16068B8B16069A8B1206998B130468C
:10501000FFF7F8FC0546082D0DD0102D0BD0206AA7
:1050200000F101002062D4E90710884202D96562CC
:1050300061E065E089E76069002856D020690028B2
:1050400053D00122206802EB4000C0B20146304636
:10505000FFF7F9FC0546402D0CD0206A00F1010055
:105060002062D4E90710884203D945F400706062D9
:1050700041E06AE735E0D4E90501401E814212D2E1
:10508000012269463046FFF7F3FC0546502D1DD03E
:10509000206A00F101002062D4E90710884201D99A
:1050A000656228E051E7002269463046FFF7E0FCE0
:1050B0000546582D0AD0206A00F101002062D4E98B
:1050C0000710884201D9656215E03EE79DF80000AF
:1050D00089F8000009F101008146A06900F1010092
:1050E000A061D4E905108842C5D33046FFF79DFC86
:1050F0000120BDE8F8833046FFF797FC0020F8E771
:10510000012F2ED13046FFF76FFCC0B200907F48D0
:105110009DF8001040F831404FF000007B499DF8A9
:10512000002001EBC20148604FF00800B0614FF071
:10513000200030604FF001013046FFF7FFFC00BF58
:1051400073489DF8001050F821000128F8D14FF065
:1051500000006F499DF8002041F822004FF0010047
:10516000C7E70020C5E72DE9F84F04460D4616466F
:1051700028688146E86882464FF00000A8606861B0
:10518000A861002E75D14FF0040020604FF0280078
:10519000A0614FF000000090834687E0206810F087
:1051A000080F7AD04FF000000090606800F0F80718
:1051B00017F0070F6CD1F8100C38142868D2DFE80C
:1051C00000F01167126719311A32364067415A6789
:1051D00067676767670A4FF0040020604FF00800B8
:1051E000A06159E000BF4FF0040020604FF00800BC
:1051F000A06151E000BFD5E9041088420BD2E868F5
:1052000048B1A0688AF800000AF101008246686986
:1052100000F1010068614FF0040020604FF00800C9
:10522000A06139E000BF4FF00800A06134E04FF00A
:105230000800A0614FF0010000904FF0000083468D
:105240002AE000BFD5E9011088420BD2286848B196
:1052500099F80000A06009F101008146A86800F1FA
:105260000100A8604FF0040020604FF00800A0612A
:1052700012E02DE011E04FF0040020604FF0080034
:10528000A0614FF0010000904FF00000834603E062
:105290004FF00800A06114E008E0009830B15846D3
:1052A000411C8B46B0F5803F00D900E076E74FF017
:1052B0000400A06147F48060A8614FF00100BDE8E0
:1052C000F88F4FF00400A061AF614FF00000F6E7E7
:1052D000012E1FD12046FFF787FB80460B4840F880
:1052E00038503046094901EBC80148604FF00400CE
:1052F00020604FF02800A0614FF001012046FFF729
:105300001DFC0120DBE7000014020020F00100205A
:10531000080200200020D2E710B58B78012B00D1C5
:1053200001E04FF000034C7843EA4403DAB20B7813
:1053300033B1012B0AD0022B0ED0032B18D111E070
:10534000C260CB7803F0FE03036311E00262CB7806
:1053500003F0FE0444630BE04262CB7803F0FE04EA
:10536000846305E08262CB7803F0FE04C46300BF6F
:1053700000BF10BD10B5012A04D1C36943EA01037F
:10538000C36107E0C3694FF0070424EA010403EA9C
:105390000403C36110BD01290AD1C26942F00102B0
:1053A000C2614FF0040202604FF02802826106E001
:1053B000C26902F00602C2614FF02C0282614FF016
:1053C00000022F4B1A6070470146C86AC0B270478E
:1053D00030B503464FF0000420464FF008049C61AE
:1053E000DC6A274D2D684C55254C246804F10104D6
:1053F000234D2C602C462468944202D34FF00104C4
:10540000204630BD70B505462846FFF7EDFA044644
:105410001C4850F8240006464FF00000194941F896
:105420002400304670BD70B505462846FFF7DCFA0B
:105430000446154850F8240006464FF00000124973
:1054400041F82400304670BD00F01F024FF001010A
:1054500001FA02F14FEA50124FF0E02303EB82020F
:10546000C2F80011704700F01F024FF0010101FA6D
:1054700002F1064A4FEA501342F823107047000029
:105480006C000020080200201402002080E100E0EF
:1054900038B504466068406800F0F8000546C02D45
:1054A00047D004DCA82D0FD0B82D4BD10DE0C82D6E
:1054B0003ED0F82D46D14FF00400616808604FF0EF
:1054C00008006168886142E000BF00BFE06A78B907
:1054D000236A1946636A1846236B1A469047E062AE
:1054E000E06A10B94FF000000FE04FF00000A0623A
:1054F000A16A01F10100A062606A405C0090E06A6C
:10550000A0F10100E0624FF0010020B19DF8000021
:105510006168886003E04FF00000616888604FF0C8
:105520000400616808604FF00800616888610EE05F
:1055300000BF4FF00400616808604FF00800616828
:10554000886104E04FF02C006168886100BF00BFF3
:1055500038BD10B570480068FFF79AFF10BD38B528
:1055600004460D468DF801504FF000008DF8030001
:105570008DF80000616808466946FFF7CDFE0020FF
:1055800038BD2DE9F04705460F4690461E46634953
:105590006348286005F108044FF02009C4F8009022
:1055A000216808460AF0AFFD60604FF00000A0607F
:1055B000E0602061606100BFA4F10804254605F1A8
:1055C0002004C4F80090216808460AF09CFD606041
:1055D0004FF00000A060E060266100BFA4F120044D
:1055E00025466F60696808464E49FFF759FA4146FB
:1055F0002846FFF7B4FF4FF017004FF000010028D6
:105600000ADA4FEA01724FEA1262474B00F00F04C8
:10561000A4F104041A5505E04FEA01724FEA126240
:10562000424B1A5400BF2846BDE8F08770B50446C7
:105630004FF034000AF070FD0546234654223C49E1
:10564000FFF79FFF05463448056070BD4FF03801F5
:10565000426891614FF0440142681160704710B593
:1056600004464FF000034FF0F0024FF003014FF0FB
:1056700001000BF093FD0423F022012102200BF026
:105680008DFD0423F022012102200BF087FD002371
:10569000F022042101200BF081FD0423F0220021DF
:1056A00002200BF07BFD4FF00000224908604FF014
:1056B00012004FF0010101FA00F14FEA50124FF0D1
:1056C000E02303EB8202C2F8001100BF2046FFF77F
:1056D000BDFF002010BD10B501464FF012004FF085
:1056E000010202FA00F2144B4FEA501443F824204E
:1056F00000BF4FF0000010BD03464FF000007047A0
:1057000000B503465868006810F0040F02D118462F
:10571000FFF79CFF002000BD70000020A849011089
:10572000F4480110A086010018ED00E000E400E05C
:1057300000100A401812104080E100E070B50446E5
:105740000D462A46214655480068FEF743F870BDCD
:1057500010B50446042C02DD4FF0FF3010BD504858
:10576000006838B14E4800680068406801464C48FF
:10577000006888474B480470052C22D2DFE804F00B
:105780002203080D170048480068454908601EE0DC
:10579000464800684249086019E001214448006811
:1057A00000F0B7F8424800683D4908600FE000216A
:1057B0003F48006800F0ADF83D480068384908608F
:1057C00005E000BF3B4800683549086000BF00BFE6
:1057D000334800680068006801463148006888471F
:1057E0000020BBE700B585B0002000900123324ABD
:1057F0000146019031A008F02FFA00205421012326
:105800002D4A8432CDE90010102130A008F024FA8E
:1058100000204FF496410423274ADC32CDE90010E2
:1058200001462DA008F018FA002204A923A008F0D0
:10583000A7FA9DF81000FFF78BFF002203A923A011
:1058400008F09EFA9DF80C1017480068FFF787FED5
:10585000002202A920A008F093FA144802990068D7
:1058600000F095FC05B000BD10B5AFF22F10FFF7AA
:10587000DDFEAFF2371000F043FAAFF23F1000F058
:1058800016FC00F03BF8FFF7ADFF002010BD054807
:105890000078704702480068704700000C00002044
:1058A0007800002074000020700000208400002098
:1058B0007C000020800000202839011044617461C0
:1058C000206F757420706F7274000000493243209D
:1058D000616464726573730055415254206261754E
:1058E00064726174650000004B494C4901604FF0DF
:1058F000010101714FF000014171704710B508209E
:105900000AF00AFC0446FFF7EFFF0446444804602F
:1059100010BD0171704710B504464FF002034FF0FF
:10592000F0024FF003014FF001000BF037FC4FF095
:1059300004003C4988624FF480603B4908604FF0A6
:1059400008003A4948604FF0000010BD10B5044609
:105950004FF00000354948604FF005034FF0F0026A
:105960004FF003014FF001000BF018FC002010BDB8
:1059700070B506464FF000012D480068FDF7D7FFCF
:105980000446CCB3307990B1A1886288A1EB0201C2
:10599000084601EBD07102EB61010D464FEA05406C
:1059A00005464FF4A070B5FBF0F0054613E02189E1
:1059B000E288A1EB0201084601EBD07102EB610124
:1059C000C1F1C8010D464FEA054005464FF0C80039
:1059D000B5FBF0F005464FF6C07005EA000005463D
:1059E00012480560707910B964200BF013FB4FF476
:1059F00080601049086006E0FFE74FF000000D49A5
:105A000008600A49086014B14FF0010001E04FF04E
:105A100000007071002070BDA8490110E849011014
:105A20007C000020001010401812104000100E40A2
:105A30000C00002014121040F8B504464FF48040CA
:105A4000F84908604FF00000F749C1F81402F74820
:105A5000806806464FF00400F449086229E000BF60
:105A6000A06A90B9E3695B001946236A1846E36AA5
:105A70001A4690474FEA5000A062A06A10B94FF052
:105A8000000010E04FF000006062616A01F1010067
:105A90006062206A30F811000090A06AA0F1010055
:105AA000A0624FF0010000B908E0BDF80000DF4936
:105AB0008860DE48C06810F0020FD0D100BF06F445
:105AC0007F40B0F5B44F04D14FF0010084F83000AE
:105AD0002DE006F47F40B0F5B64F24D104F1040563
